:020000040800F2
:10000000D80800204501000867130008BB0F00084E
:1000100063130008F30900087D1F000800000000BA
:10002000000000000000000000000000751A000839
:10003000190E0008000000001D190008B51B00087B
:100040005F0100085F0100085F0100085F01000810
:100050005F0100085F0100085F0100085F01000800
:100060005F0100085F0100085F0100085F010008F0
:100070005F0100085F0100085F0100085F010008E0
:100080005F0100085F0100085F0100085F010008D0
:100090005F0100085F0100085F0100085F010008C0
:1000A0005F0100085F0100085F0100085F010008B0
:1000B0005F010008191C0008A51C00085F0100086A
:1000C0005F0100085F0100085F0100085F01000890
:1000D0005F0100085F0100085F0100085F01000880
:1000E0005F0100085F0100085F0100085F01000870
:1000F0005F0100085F0100085F0100085F01000860
:100100005F0100085F0100085F0100085F0100084F
:100110005F0100085F0100085F0100085F0100083F
:100120005F0100085F0100085F0100085F0100082F
:10013000DFF80CD000F02AFC00480047292A00080C
:10014000D80800200648804706480047FEE7FEE73B
:10015000FEE7FEE7FEE7FEE7FEE7FEE7FEE7FEE777
:10016000B91B000831010008F0B480EA0102D40F85
:100170004200B2EB410F02D20246084611464A0045
:1001800042D0C30DDDB2C1F3C752AD1A202D35DA0E
:10019000C1F3160141F4000204B15242C5F1200638
:1001A00002FA06F12A411044B3EBD05F23D0C4B168
:1001B000012DA0EBC35009DCF0BC4FF0004202EA75
:1001C000C352DBB200F5000000F07EBA400000F13F
:1001D000807000EBC350A0F1807040EAD1704900FC
:1001E00009E0490841EAC071A0EBC35000F50000E6
:1001F000400800EBC350F0BC00F05DBA6142012240
:1002000002EB4101001BF6E7F0BC704781F00041B2
:10021000AAE780F00040A7E780EA010210B502F0EB
:100220000043400022D04A001FD0010E01EB1261B2
:10023000C0F35600C2F3560240F4000042F400023C
:10024000A0FB022000047F39140400D0401C50EAB7
:10025000124001D44000491EC2B20C0604EBD0107B
:10026000401C4008802A02D003E0002010BD20F08E
:100270000100002900DA0020184310BD30B480EAE4
:10028000010202F0004530F0004221F0004013D09E
:1002900090B1C30DD40DC2F31601C0F31600E41AD9
:1002A00041F4000140F400027D34914201D3641C0A
:1002B00000E04900002C02DA30BC002070474FF407
:1002C00000000023914201D3891A034340084FEAFA
:1002D0004101F7D151B1914202D14FF0004105E007
:1002E00002D24FF0010101E06FF0010103EBC450B5
:1002F000284430BC00F0DFB92DE9FE4F81EA030449
:1003000004F0004421F0004100944FF0000B23F072
:10031000004350EA01045ED052EA03045BD0C3F309
:100320000A54C1F30A552C44A4F2F3340194A0FBFF
:100330000254C1F3130141F48011C3F3130343F4D6
:10034000801301FB024400FB034E840A970A44EA2F
:10035000815447EA8357A4FB076802958D0A05FB81
:1003600007854FEA932C04FB0C542705029D4FEAA6
:10037000065847EA1637B5EB08056EEB070C870EF3
:10038000920E47EA811742EA8312A7FB0201B6EBFD
:100390000B0164EB00042B0D43EA0C335E1844EBB5
:1003A0001C50DA465146E7FB0201C5F313044FEA3D
:1003B0000B3343EA14534FEA0432019C43EA060329
:1003C000A4F10C040294009CCDE900B400F0B9F94A
:1003D00003B0BDE8F08F00200146F9E72DE9F04DAC
:1003E00081EA030404F0004B21F0004514464FF06D
:1003F000000A23F0004150EA050220D054EA01022D
:100400001DD0C5F30A570246C5F31303C1F3130009
:10041000C1F30A5640F4801543F48013A7EB060895
:10042000101BD64608F2FD3873EB050002D308F125
:10043000010801E092185B41B8F1000F03DA0020D7
:100440000146BDE8F08D00204FF480110646844639
:100450000EE0171B73EB050705D3121B63EB0503B7
:1004600006434CEA010C49084FEA300092185B4100
:1004700050EA0107EDD152EA030012D082EA0400EB
:1004800083EA0501084305D0101BAB4106D20122C7
:10049000002306E000224FF0004302E06FF001026B
:1004A00053101AEB06004CEB085110EB0A0041EB1D
:1004B0000B01BDE8F04D00F035B9C10F80EAE070E6
:1004C0000844CA079623002100F0FEB896230022B4
:1004D000114600F0F9B80EB5C10F80EAE07008448B
:1004E000CA07002140F233438DE80E000A460B464E
:1004F00000F027F903B000BD00F0004220F00040FA
:10050000C10DC0F3160040F400007F2901DA00207D
:100510007047962903DCC1F19601C84001E0963985
:100520008840002AF4D04042704720F00040C10DBE
:10053000C0F3160040F400007F2901DA0020704764
:10054000962903DCC1F19601C8407047963988406E
:10055000704700F0004230F000400AD0C10D01F5B4
:100560006071C0F3160042EA0151C208400711430E
:10057000704700200146704730B5041E71F1000439
:1005800004DB4FF00044404264EB0101141E73F1A0
:10059000000405DB1C464FF00043524263EB0403AA
:1005A0008B4208BF824230BD01F0004330B421F0DD
:1005B000004150EA010206D00A0DA2F56072C1F3B3
:1005C0001301002A02DC30BC00207047440F44EACB
:1005D000C104C100E01830BC00EBC25000F06BB8A1
:1005E000002801DBC0F10040002901DBC1F100411E
:1005F00081427047002801DBC0F10040002901DB87
:10060000C1F100418842704730B50B4601460020D9
:100610002022012409E021FA02F59D4205D303FAC4
:1006200002F5491B04FA02F52844151EA2F1010245
:10063000F1DC30BD2DE9F05F0546002092469B4677
:1006400088460646814640241BE0284641464746E8
:10065000224600F020F853465A46C01A914110D362
:1006600011461846224600F0A3F92D1A67EB01083F
:100670004F4622460120002100F09AF917EB0009AD
:100680004E41201EA4F10104DFDC484631462A46D3
:100690004346BDE8F09F202A04DB203A21FA02F00D
:1006A0000021704721FA02F3D040C2F120029140AC
:1006B0000843194670470029A8BF7047401C4900ED
:1006C00008BF20F00100704710B4B0FA80FC00FAB7
:1006D0000CF050EA010404BF10BC704749B1CCF1E2
:1006E000200421FA04F411FA0CF118BF012121436E
:1006F0000843A3EB0C01CB1D4FEA00614FEA102029
:1007000042BF002010BC704700EBC35010440029CA
:10071000A4BF10BC7047401C490008BF20F0010076
:1007200010BC704710B5141E73F1000408DA401CA9
:1007300041F1000192185B411A4301D120F0010000
:1007400010BD2DE9F04D92469B4611B1B1FA81F2F0
:1007500002E0B0FA80F22032904600F029F9044617
:100760000F4640EA0A0041EA0B0153465A46084345
:1007700013D0114653EA010019D0C8F14002504687
:10078000FFF789FF05460E4650465946424600F09F
:100790000FF9084305D0012004E020463946BDE8A2
:1007A000F08D0020054346EAE0762C4337430A9853
:1007B0006305E40AA0EB08000022FD0A44EA47545E
:1007C0000A3002D500200146E9E701051019694108
:1007D000DDE9084500196941BDE8F04DA2E72DE9C2
:1007E000FE4F804681EA0300C00F0C46009021F0C6
:1007F000004123F00045B8EB0200A94105D2404674
:10080000214690461C460B46024623F0004010430A
:1008100047D0270DC7F30A00C3F30A510290401ACC
:10082000019040286BDAC3F3130040F4801B00985A
:10083000924620B10023D2EB030A63EB0B0B019825
:100840005946C0F14002504600F0B2F806460D4647
:1008500050465946019A00F0BAF810EB0800614181
:10086000002487EA115284EAE7731A4340D0009AC1
:1008700062B3019A012A4FEA075215DC001B61EBB3
:1008800002014FF0004202EA0752CDE90042001C8B
:1008900041F5801132462B46FFF753FF03B0BDE808
:1008A000F08F40462146F9E7001B61EB0201001C76
:1008B00041F5801300185B412018A2F5001747EBA3
:1008C000030140EAD570B6196D4111E06D084FEA99
:1008D000360645EAC0754FEA0752001B61EB02017C
:1008E000001C41F5801149084FEA300000195141C0
:1008F00032462B4603B0BDE8F04FFFF713BF009818
:10090000012240000023D0EB020263EBE073009869
:1009100021464FEAE074B8EB000061EB0401E9E71F
:1009200083F000435BE781F0004158E7C1F30A52CE
:10093000C1F3130140F2FF3341F480119A4202DA0D
:1009400000200146704740F233439A42A2F23342FC
:1009500002DC5242FFF79FBE00F02AB830B5041EF9
:1009600071F1000404DB4FF00044404264EB0101EC
:10097000141E73F1000405DB1C464FF00043524285
:1009800063EB0403994208BF904230BD064C074D0B
:1009900006E0E06840F0010394E80700984710344F
:1009A000AC42F6D3FFF7C8FBF43A0008143B00084A
:1009B000202A04DB203A00FA02F10020704791401F
:1009C000C2F1200320FA03F3194390407047202A14
:1009D00006DBCB17203A41FA02F043EAE07306E067
:1009E00041FA02F3D040C2F1200291400843194677
:1009F000704700BFFEE721B1026842F001020260C9
:100A000004E002684FF6FE731A400260704700006F
:100A100001684FF6FE7211400160002101604160E3
:100A20008160C1604B49884208D14A490839496808
:100A300041F00F01474A083A51608AE045491431B4
:100A4000884208D143490839496841F0F001414AD8
:100A5000083A51607DE03F492831884208D13D493C
:100A60000839496841F470613A4A083A516070E0C7
:100A700038493C31884208D136490839496841F43F
:100A80007041344A083A516063E03249503188423B
:100A900008D130490839496841F470212D4A083A93
:100AA000516056E02B496431884208D12949083900
:100AB000496841F47001274A083A516049E02549E4
:100AC0007831884208D123490839496841F070617A
:100AD000204A083A51603CE01F49884206D1011F74
:100AE000096841F00F01021F116032E01A49143108
:100AF000884208D11849091F096841F0F001164AD7
:100B0000121F116025E014492831884208D112498A
:100B1000091F096841F470610F4A121F116018E043
:100B20000D493C31884208D10B49091F096841F43D
:100B30007041094A121F11600BE007495031884289
:100B400007D10549091F096841F47021024A121FA3
:100B500011607047080002400804024010B50022EE
:100B6000026847F6F0739A430C6A8B6823430C695A
:100B700023434C6923438C692343CC6923434C6A48
:100B800023438C6A23431A430260CB6843600B689B
:100B900083604B68C36010BD10B500241548006821
:100BA00020F47040134908600846006840F4004093
:100BB000086004E0601CC4B2012000F04DF90E484A
:100BC000006808B1C82CF5DBC82C01DB012010BD82
:100BD000002404E0601CC4B2012000F03DF9064886
:100BE000006808B9F02CF5DBF02C01DB0120EEE702
:100BF0000020ECE704180140180123422DE9F05FC2
:100C000000F0C4F800F0A0F8FFF7C6FFCC2000F019
:100C1000C9F8BE2000F0C6F800F084F8834600F062
:100C200081F80446072C17DDE043C4B26FEA0B00DD
:100C300000F0FF0B4BEA042A5046FFF74CFC074636
:100C400000220D4BFFF7CAFB0546FFF7ADFC8146BE
:100C500089F00040BDE8F09F4BEA042A5046FFF7B8
:100C60003AFC05460022044BFFF7B8FB0746FFF7A6
:100C70009BFC81464846EDE70000304008B5012165
:100C8000402000F07DFE4020ADF8000010208DF8DF
:100C9000030003208DF802006946064800F0F7F8CB
:100CA0004021044800F087F900F04EF8FFF774FF88
:100CB00008BD00000018014010B51748006820F476
:100CC0007040154908600846006840F440500860CC
:100CD000002012490860022000F0BEF801201049EF
:100CE000C1F898010C48006820F470400A49086077
:100CF0000846006840F4004008600C2000F0ACF8A2
:100D000006488038006808B1012400E00024322041
:100D100000F0A2F8204610BD0418014098012342BB
:100D20000000234270B50026012508E0FFF7C4FF4C
:100D30000446E00140EA6600C6B2681CC5B2082D50
:100D4000F4DD304670BD000010B50D48006820F499
:100D500070400B4908600846006840F44050086045
:100D600000200849086040F2EE2000F075F80120EC
:100D70000549C1F898010F2000F06EF810BD000081
:100D800004180140980123420000234210B5FFF7E8
:100D9000DBFFFFF701FFCC2000F004F8442000F057
:100DA00001F810BD70B504461848006820F4704082
:100DB000164908600846006840F440500860012564
:100DC00020E004F0010664106EB1002010490860B4
:100DD000022000F041F801200E49C1F898013C20A2
:100DE00000F03AF80CE00020094908603C2000F0CF
:100DF00033F801200749C1F89801022000F02CF8CF
:100E0000681CC5B2082DDCDD70BD0000041801406F
:100E100098012342000023427047000070B5044649
:100E20000C4800F09DFE002508E000BF4FF0E020D8
:100E3000006900F480300028F8D06D1CA542F4D37E
:100E40004FF0E020006920F001004FF0E021086140
:100E500070BD00004019010070B50446482000F044
:100E60007FFE002508E000BF4FF0E020006900F49D
:100E700080300028F8D06D1CA542F4D34FF0E0205C
:100E8000006920F001004FF0E021086170BD2DE9FC
:100E9000F041024600250026002000230024002700
:100EA00091F803C00CF00F0591F803C00CF0100C82
:100EB000BCF1000F03D091F802C04CEA050591F88F
:100EC00000C0BCF1000F31D0146800202BE04FF0BF
:100ED000010C0CFA00F3B1F800C00CEA03069E42C4
:100EE00020D183004FF00F0C0CFA03F7BC4305FA36
:100EF00003FC4CEA040491F803C0BCF1280F06D1AE
:100F00004FF0010C0CFA00FCC2F814C00AE091F892
:100F100003C0BCF1480F05D14FF0010C0CFA00FCE6
:100F2000C2F810C0401C0828D1D31460B1F800C02A
:100F3000BCF1FF0F34DD546800202EE000F1080CF6
:100F40004FF0010808FA0CF3B1F800C00CEA0306F0
:100F50009E4221D183004FF00F0C0CFA03F7BC43E3
:100F600005FA03FC4CEA040491F803C0BCF1280F15
:100F700005D100F1080C08FA0CF8C2F8148091F8B9
:100F800003C0BCF1480F07D100F1080C4FF0010875
:100F900008FA0CF8C2F81080401C0828CED3546020
:100FA000BDE8F0810246002093680B400BB10120A0
:100FB00000E0002070470161704700BFFEE770B598
:100FC00002460024002500230020958A138B1B0471
:100FD00045EA030626F07F4404EA01068E4201D169
:100FE000012000E0002070BD21B1028842F0010222
:100FF000028004E002884FF6FE731A4002807047B8
:1010000000B585B00121480500F09AFC01210820B7
:1010100000F0B6FCC020ADF8000003208DF80200FF
:101020001C208DF8030069461148FFF730FF114876
:1010300000F024F80020ADF808004BF6FF70ADF882
:101040000A003020ADF80C004FF48060ADF80E00BF
:101050000001ADF810000848019001210548FFF794
:10106000C3FF01A9034800F05BF805B000BD000014
:10107000000C014000540040801A060010B50446E0
:101080000B48844209D10121480500F069FC002188
:101090004FF4001000F064FC08E00121880500F026
:1010A0005FFC00214FF4800000F05AFC10BD0000EE
:1010B0000054004021B1028842F48072028004E0B2
:1010C00002884FF6FF631A400280704721B1028800
:1010D00042F40072028004E002884FF6FF531A4087
:1010E000028070470CB50246002000230193009354
:1010F00000920B0F019321F07F41019B1BB1009BDC
:101100001433009303E0090C009B18330093009BF9
:101110001B680B400BB1012000E000200CBD00005B
:101120002DE9F04385B004460D460026B14604275C
:10113000DFF8CC80A6884FF6C0700640684600F005
:101140002FFCDDF808802F48B8FBF0F01FFA80F97B
:1011500046EA0906A68020884FF6FE7108402080E6
:1011600000262949286888420CD828684000B8FB26
:10117000F0F087B2042F00DA04273E4309F10100A2
:10118000208427E0E8884BF6FF71884206D1286862
:1011900000EB4000B8FBF0F087B209E0286800EBF4
:1011A000C00101EB0010B8FBF0F087B247F48047B4
:1011B000C7F30B0008B947F0010747F400400643A6
:1011C0004FF4967009FB00F04FF47A7190FBF1F048
:1011D000401C2084A683208840F0010020802688BF
:1011E0004FF6F5300640A8886989084306432680F3
:1011F000A88929890843208105B0BDE8F083000053
:1012000000127A0040420F00A086010012B141F0A6
:10121000010102E04FF6FE7319400182704701821E
:101220007047000070B504460D4600BF4FF4003112
:101230001C48FFF757FF0028F8D101211948FFF794
:1012400039FF00BF18491748FFF7B9FE0028F9D049
:10125000002278211348FFF7D9FF00BF1349114836
:10126000FFF7ADFE0028F9D021460E48FFF7D7FF63
:1012700000BF0E49891C0B48FFF7A1FE0028F8D0DB
:1012800029460848FFF7CBFF00BF0849891C0548DD
:10129000FFF795FE0028F8D001210248FFF716FF5E
:1012A00070BD0000005400400100030082000700F0
:1012B00008B50121042000F063FB4FF40060ADF895
:1012C000000010208DF8030003208DF8020069460D
:1012D0000448FFF7DCFD4FF400610248FFF76BFEA6
:1012E00008BD00000008014008B50121142000F0ED
:1012F00047FB4FF48070ADF8000004208DF8030028
:1013000069460C48FFF7C3FD4FF40070ADF80000CC
:1013100004208DF8030069460648FFF7B8FD012058
:10132000ADF8000004208DF8030069460248FFF77D
:10133000AEFD08BD001001400008014070B5044634
:101340000D4629462046FFF72DFE40B900BF29462D
:101350002046FFF727FE0028F9D0002070BD0120AD
:10136000FCE700BFFEE7704770B5002100230F22A5
:10137000C47804B3154C246804F4E064C4F5E06454
:10138000210AC1F10403CA40447804FA03F18478C5
:101390001440214309010E4C0678A155047804F04D
:1013A0001F050124AC4005786D11AD0005F1E02565
:1013B000C5F8004109E0047804F01F050124AC40A1
:1013C000044D0678761145F8264070BD0CED00E01E
:1013D00000E400E080E100E010B5002000F001F83A
:1013E00010BD70B50646002415E004F1B001C8B286
:1013F00000F0C6FD002000F0C3FD102000F0C0FD8D
:10140000002504E0304600F0C2FD681CC5B2802D06
:10141000F8DB601CC4B2082CE7DB70BD10B564209B
:10142000FFF7FCFCAE2000F0ABFD202000F0A8FD93
:10143000102000F0A5FDB02000F0A2FDC82000F0B3
:101440009FFD002000F09CFD102000F099FD402041
:1014500000F096FD812000F093FDFF2000F090FD4C
:10146000A12000F08DFDA62000F08AFDA82000F04C
:1014700087FD3F2000F084FDA42000F081FDD320F3
:1014800000F07EFD002000F07BFDD52000F078FD0F
:10149000F02000F075FDD92000F072FD222000F050
:1014A0006FFDDA2000F06CFD122000F069FDDB20FA
:1014B00000F066FD202000F063FD8D2000F060FD4F
:1014C000142000F05DFDAF2000F05AFD10BD10B5F6
:1014D0000246012000E050430B1EA1F10104E1B2DD
:1014E000F9D110BD70B504460D4605F1B001C8B282
:1014F00000F046FD102141EA141000F041FD04F017
:101500000F0141F0010000F03BFD70BD2DE9F047F7
:1015100007460E469046994600250024A8F1200073
:10152000C5B27F2F02DD0027B01CC6B2B9F1100F83
:1015300022D131463846FFF7D5FF002407E004EBFF
:101540000511174A505C00F022FD601CC4B2082C43
:10155000F5DB701CC1B23846FFF7C4FF002408E079
:1015600004EB051108310E4A505C00F010FD601CC0
:10157000C4B2082CF4DB11E031463846FFF7B2FF65
:10158000002409E005EB4501064A02EB4101085D34
:1015900000F0FDFC601CC4B2062CF3DBBDE8F08754
:1015A00004310008DC2E00082DE9FF5F0746914654
:1015B0001E460E9D4FF0000A002435E0301B401EF1
:1015C000C1B20A20FFF783FFB9FBF0F00A21B0FB9C
:1015D000F1F201FB1208BAF1000F14D1701EA04203
:1015E00011DDB8F1000F0CD1AB4605EBDB714910F2
:1015F00001FB0471C8B22B4620220199FFF786FF38
:1016000010E04FF0010AAB4605EBDB71491001FB1E
:101610000471C8B208F13001CAB22B460199FFF734
:1016200075FF00BF601CC4B2B442C7DBBDE8FF9FBA
:101630002DE9F0470646894617469A464FF00008BE
:1016400000240025BAF1010F03D0BAF1020F5ED1D8
:1016500025E020E0785D203800F0FF087E2E04DDD4
:10166000002609F1010000F0FF0949463046FFF766
:1016700039FF002409E008EB4801264A02EB41014A
:10168000085D00F084FC601CC4B2062CF3DBB01DC6
:10169000C6B2681CC5B2785D0028DBD137E032E005
:1016A000785D203800F0FF08782E04DD002609F16F
:1016B000010000F0FF0949463046FFF713FF002400
:1016C00007E004EB0811144A505C00F060FC601C59
:1016D000C4B2082CF5DB09F10100C1B23046FFF7B6
:1016E00001FF002408E004EB081108310A4A505CAD
:1016F00000F04DFC601CC4B2082CF4DB06F10800BD
:10170000C6B2681CC5B2785D0028C9D100BF00BF51
:10171000BDE8F087DC2E0008043100082DE9F84F01
:101720005949888AFEF7D2FE05465748016928467E
:10173000FEF756FF01D2BDE8F88F0020524988829B
:101740000A4691685068FEF761FD4F4908620A46F3
:10175000116AD068FEF760FD4B4908630A46116ABA
:10176000906AFEF701FD484988620A46516A106A8C
:10177000FEF74CFD0746444A91691069FEF77EFD6D
:1017800080464148C1684046FEF746FD81463E48D6
:10179000816A4846FEF740FD3B49C8620A46116926
:1017A000D069FEF76BFD82463749C8685146FEF79F
:1017B00033FD834639465846FEF72EFD32494863CD
:1017C0000A46D16A106BFEF7CFFC05462E48416BE6
:1017D0002846FEF7C9FC04462B49B1F84400FEF741
:1017E00075FE05462146FEF7FBFE05D22648B0F8F9
:1017F00044002549086438E000212046FEF7F0FE49
:1018000012D20A2020490864086AFEF7A2FE0546A3
:101810001E4A1F4BFEF7B0FE27D21B49C86BFEF7CE
:101820006BFE1949086420E02046FEF765FE164964
:101830000864086AFEF78DFE05464FF06632154BC8
:10184000FEF79AFE11D20D200F490864086AFEF7D0
:1018500080FE05460D4A0E4BFEF78EFE05D20A4964
:10186000C86BFEF749FE084908641020009006483E
:1018700003230621026C0020FFF796FE0248006A4F
:101880000149486200BF56E7900400209A9999994F
:101890009999B9BF6666D63F09480A4908610A485E
:1018A00048600A48C8600A4888610A48C8614FF021
:1018B0007E5088630020C863C820A1F844007047A8
:1018C0000000FA4390040020000020420000E8419C
:1018D0004054894A008004440D480088401C0C494B
:1018E00008800C48B0F844000988884202DC0020D7
:1018F000074908800748006C05490988884203DDCC
:1019000001200549086002E0002003490860704793
:101910004600002090040020AC01214270470000E6
:1019200029B1064A52690243044B5A6104E0034A52
:1019300052698243014B5A61704700000010024017
:1019400029B1064AD2690243044BDA6104E0034A32
:10195000D2698243014BDA617047000000100240F7
:1019600029B1064A12690243044B1A6104E0034A92
:1019700012698243014B1A61704700000010024057
:1019800029B1064A92690243044B9A6104E0034A72
:1019900092698243014B9A61704700000010024037
:1019A00030B500210022002400232D4D6D6805F084
:1019B0000C0121B1042905D0082923D105E0294DC6
:1019C000056022E0274D05601FE0254D6D6805F498
:1019D0007012234D6D6805F48034022505EB9242A8
:1019E0001CB9214D554305600BE01D4D6D6805F494
:1019F00000351DB11C4D5543056002E0194D55439E
:101A0000056002E0174D056000BF00BF144D6D6812
:101A100005F0F0010909154D6B5C0568DD40456076
:101A20000F4D6D6805F4E061090A104D6B5C456867
:101A3000DD4085600A4D6D6805F46051C90A0B4DA3
:101A40006B5C4568DD40C560054D6D6805F440413F
:101A5000890B074D6B5CC568B5FBF3F5056130BDBF
:101A60000010024000127A0000093D003200002000
:101A700042000020704710B500F002F810BD0000D1
:101A80000CB50020019000903348006840F480308D
:101A90003149086000BF3048006800F40030009011
:101AA0000198401C0190009818B90198B0F5A06FFA
:101AB000F1D12948006800F4003010B101200090F5
:101AC00001E0002000900098012843D123480068DD
:101AD00040F01000214908600846006820F003002B
:101AE00008600846006840F0020008601A48406834
:101AF000194948600846406848600846406840F414
:101B0000806048600846406820F47C1048600846C1
:101B1000406840F4E81048600846006840F0807073
:101B2000086000BF0C48006800F000700028F9D081
:101B30000948406820F003000749486008464068AB
:101B400040F00200486000BF0348406800F00C000D
:101B50000828F9D10CBD000000100240002002400E
:101B600030B50146B1F1807F01D3012030BD21F0B5
:101B70007F40401E4FF0E022506150170F22002896
:101B800007DA13071D0E094B00F00F04241F1D5523
:101B900003E013071C0E064B1C5400BF00204FF03F
:101BA000E0229061072010610020DFE718ED00E0DF
:101BB00000E400E07047000010B51348006840F0F2
:101BC00001001149086008464068104908400E4964
:101BD0004860084600680E4908400B4908600846FE
:101BE000006820F4802008600846406820F4FE0069
:101BF00048604FF41F008860FFF73DFF4FF0006022
:101C00000449086010BD0000001002400000FFF809
:101C1000FFFFF6FE08ED00E010B50121074800F0D7
:101C2000AEF850B10121054800F09AF80448808AC6
:101C3000401C03498882FFF74FFE10BD000400409E
:101C4000900400207FB505460C4601210220FFF7D5
:101C500077FEADF80850ADF804400020ADF80A005A
:101C6000ADF8060001A90E4800F0A4F801221146C3
:101C70000B4800F095F81D208DF8000001208DF82C
:101C8000010002208DF8020001208DF80300684653
:101C9000FFF76AFB0121024800F065F87FBD0000F4
:101CA0000004004070B50121104800F068F8E0B170
:101CB00001210E4800F054F8FEF7A0FF0C4988609F
:101CC0008868FEF746FC044622460B4609A000F051
:101CD00065F907494868FEF70FFC094908600448A0
:101CE00080684860084601F071F870BD0008004047
:101CF0009004002054656D703A252E33660A00006A
:101D00004C0000207FB505460C4601210420FFF75A
:101D100017FEADF80850ADF804400020ADF80A00F9
:101D2000ADF8060001A90D4800F044F80122114663
:101D30000A4800F035F81E208DF8000001208DF8CB
:101D400001008DF802008DF803006846FFF70CFBD8
:101D50000121024800F007F87FBD000000080040A4
:101D6000CA430282704721B1028842F00102028018
:101D700004E002884FF6FE731A400280704730B5C7
:101D80000246002000230024158A05EA01039589F4
:101D900005EA010413B10CB1012000E0002030BDC0
:101DA0001AB183890B43838102E083898B4383814A
:101DB00070470000002202881D4B98420ED01D4B38
:101DC00098420BD0B0F1804F08D01B4B984205D001
:101DD0001A4B984202D01A4B984204D14FF68F7397
:101DE0001A404B881A43174B984207D0164B98421B
:101DF00004D04FF6FF431A40CB881A4302808B88E9
:101E000083850B8803850A4B98420BD0094B984277
:101E100008D00E4B984205D00D4B984202D00D4B86
:101E2000984201D10B7A0386012383827047000018
:101E3000002C014000340140000400400008004034
:101E4000000C004000100040001400400040014021
:101E5000004401400048014021B1828942F400520F
:101E6000828104E082894DF6FF731A4082817047B7
:101E70001AB1838A0B43838202E0838A8B43838275
:101E8000704702460020B1F5007F00D100BF1388E3
:101E90000B400BB1012000E0002070472DE9F04716
:101EA00086B005460E460024A24600BFA146002784
:101EB000B08900B100BF2F462C8A4CF6FF70044059
:101EC000F08804432C82AC894EF6F3100440B088AD
:101ED00031890843718908430443AC81AC8A4FF6C9
:101EE000FF400440B0890443AC8201A8FFF758FDCD
:101EF0001F48874202D1DDF810A001E0DDF80CA0F8
:101F0000A88900F4004040B10AEBCA0000EB0A10B7
:101F100031684900B0FBF1F807E00AEBCA0000EBBA
:101F20000A1031688900B0FBF1F86420B8FBF0F0CA
:101F300004012009642101FB1089A88900F40040F4
:101F400040B1322000EBC900B0FBF1F000F0070017
:101F5000044308E0322000EB09106421B0FBF1F0EB
:101F600000F00F0004432C8106B0BDE8F0870000AC
:101F700000380140C1F308028280704700BFFEE7CD
:101F800010B5044621460020FFF74CF910BD10B5EE
:101F9000044621464020FFF745F910BD0FB4054B1C
:101FA00010B503A9044A029800F0EEF810BC5DF8E1
:101FB00014FB0000C1280008480000200FB4084BA3
:101FC00010B504A902AA039800F0DEF8044602A99D
:101FD000002000F070FC204610BC5DF814FB0000EF
:101FE000B728000802E008C8121F08C1002AFAD169
:101FF00070477047002001E001C1121F002AFBD189
:10200000704700002DE9FF5F82B00021DDE9043058
:10201000020DDDF840B0034318D044F61050A2F290
:10202000FF3242431514119801281FD0A5EB0B0075
:10203000401C5FEA000A4FF000064E4FDFF838916F
:10204000B046504615D5CAF1000413E0119801249A
:102050004AA3012801D16FEA0B010298119AC0E945
:102060000031C0E9024206B0BDE8F09FCBF10000AC
:10207000DFE704460021404A491842EB0450CDE90D
:10208000001012E0E00707D032463B464046494682
:10209000FEF732F98046894632463B4610461946DD
:1020A000FEF72AF906460F466410002CEAD1DDE956
:1020B0000401DDE90023BAF1000F06DAFEF71CF98E
:1020C00042464B46FEF718F905E0FEF787F942460F
:1020D0004B46FEF783F904460E460022284BFEF7D6
:1020E0003DFC03D84FF0FF30014607E00022254BAE
:1020F00020463146FEF773FBFEF718FC102409E07A
:10210000002C0ADB0A220023FEF794FA039B3032EC
:102110001A55641E50EA0102F2D1641C039AC4F1FC
:1021200011031444119A012A03D0012208430DD14E
:102130000AE0084304D000204FF0110B119072E721
:10214000A3EB0B056D1E0DE05B4504DD4FF00002B7
:1021500005F1010504E003DA4FF00002A5F10105E5
:10216000002AECD002981199C0E90231C0E900457B
:1021700079E70000000014400000F03F300000004C
:102180000000F0430000E03F2DE9FF4F95B09B4673
:102190008946064600250FE2252877D100242746E8
:1021A000F84A0121059400E0044316F8013F203B62
:1021B00001FA03F01042F7D130782A2811D06FF0DD
:1021C0002F033078A0F13002092A16D8059A44F07E
:1021D000020402EB820203EB42021044761C0590DB
:1021E000EFE759F8042B0592002A03DA504244F431
:1021F0000054059044F00204761C30782E2816D145
:1022000016F8010F44F004042A280DD06FF02F02B5
:102210003078A0F13003092B09D807EB870302EBD4
:102220004303C718761CF3E759F8047B761C307813
:102230006C280FD006DC4C2817D068280DD06A28EF
:1022400014D104E0742810D07A280FD10DE044F4A2
:1022500000140AE044F4801401E044F4401472785D
:10226000824202D104F58014761C761C30786628F0
:102270000BD013DC582877D009DC002875D045280E
:10228000F6D04628F4D047281AD19DE118E06328FB
:1022900035D0642879D0652812D195E1702873D0A3
:1022A00008DC6728F1D069286FD06E280DD06F2820
:1022B00006D1B5E073282CD0752875D0782874D055
:1022C0005A46179990476D1C75E1C4F302500228D5
:1022D00009D003280DD0D9F8001004280DD00D60C6
:1022E00009F1040967E1D9F80010EA17C1E90052C1
:1022F000F6E7D9F800100D80F2E70D70F0E719F855
:10230000041B8DF8001000208DF80100EA46012022
:1023100003E059F804AB4FF0FF3061074FF00001C4
:1023200002D40DE008F101018846B9420FDA804578
:10233000F8DB1AF808100029F4D108E008F10101CF
:1023400088468142FADB1AF808100029F6D1059870
:102350005B46A0EB080721463846179A00F094FA2E
:10236000284400EB080507E04DE029E10DE01AF8EC
:10237000010B5A4617999047B8F10108F7D25B460E
:1023800021463846179A13E142E00A220092C4F32C
:1023900002524FF0000A022A08D059F804CB032A4F
:1023A0004FEAEC710AD00DE029E02AE009F10701BB
:1023B00021F00702F2E802C1914609E00FFA8CFC15
:1023C0004FEAEC71042A03D14FFA8CFC4FEAEC710E
:1023D000002907DA0A460021DCF1000C61EB02015A
:1023E0002D2202E0220504D52B228DF804200122A3
:1023F00003E0E20701D02022F7E7904659E00A21E6
:1024000002E010220DE010214FF0000A00910BE0D5
:1024100010224FF0000A44F004040827009203E061
:1024200008224FF0000A0092C4F30252022A05D09B
:1024300059F804CB0021032A08D009E009F107016B
:1024400021F00702F2E802C1914605E01FFA8CFC78
:10245000042A01D10CF0FF0C4FF00008220728D508
:10246000702806D0009B83F0100353EA0A0305D0BE
:102470000EE040228DF80420012208E05CEA01020F
:1024800006D030228DF804208DF8050002229046F7
:10249000009B83F0080353EA0A030AD15CEA0102B5
:1024A00001D1620705D530228DF804204FF00108D4
:1024B0007F1E582804D034A003900EA802900DE08F
:1024C00036A0F9E753466046009AFEF7B3F8844613
:1024D0000398825C0298401E029002705CEA010040
:1024E000F0D1029806A9081A00F1200A600702D567
:1024F00024F4803400E00127574502DDA7EB0A00F1
:1025000000E0002000EB0A01009005984144401AC9
:102510000590E00306D45B462146179A059800F023
:10252000B3F90544002706E001A85A46C05D179993
:1025300090476D1C7F1C4745F6DBE0030CD55B46DE
:102540002146179A059800F09FF9054404E03020D1
:102550005A46179990476D1C0099481E0090002913
:10256000F5DC08E0029802995A460078491C02916D
:10257000179990476D1CBAF10001AAF1010AF1DC2C
:1025800065E1000009280100303132333435363737
:1025900038396162636465660000000030313233AF
:1025A000343536373839414243444546000000004F
:1025B00000F058F90544761C307800287FF4ECAD23
:1025C00019B02846BDE8F08F620700D4062709F14C
:1025D000070222F0070CFCE80223E14603F0004862
:1025E0005FEA080C02D00FF2702C0DE05FEA045C89
:1025F00002D50FF2682C07E05FEAC47C02D00FF22C
:10260000602C01E0AFF2700C4FF0FF3823F0004374
:10261000CDF850C065280CD006DC452809D04628E6
:102620001DD047283DD13DE0662818D067287ED1CF
:1026300038E00021112F01DB112000E0781CCDE9EA
:10264000000106A90EA8FFF7DDFCDDE90F010E9AD7
:1026500003910021009207F1010A04914DE04FF02F
:1026600000400097CDE9011006A90EA8FFF7CAFCAB
:10267000DDE90F0203920E9B11990022DDF80CA0F8
:102680000093049211B9791C00EB010AB7EB0A0020
:1026900004D4C0F1FF3007F1010A0490AAEB07004F
:1026A000019044E0012F00DA01270021112F01DD04
:1026B000112000E03846CDE9000106A90EA8FFF779
:1026C000A1FCDDE90F010E9A039100210491009213
:1026D000BA4621070CD40399514500DA8A46BAF16B
:1026E000010F05DD009AAAF10101515C302908D0E3
:1026F000B84202DA10F1040F06DA0121CDE9011027
:1027000015E0AAF10101E9E7002805DC049901447C
:102710000491AAEB000102E0411C514500DD8A460C
:102720000499401A401C01904FF00040029020078D
:1027300004D40198504501DBCDF8048000208DF8C9
:102740004F0002980DF14F07B0F1004F25D02B201C
:102750000E9002984FF0020800280CDA40420290D6
:102760002D200E9007E00A210298FDF74DFF303131
:10277000029007F8011DB8F10001A8F10108F2DC90
:1027800002980028EFD1791E0E980870307800F07A
:10279000200040F0450007F8020D12A8C01B00F110
:1027A00007081498007800B1012000EB0A01019895
:1027B00001EBE07105984144401A401E0590E0038A
:1027C00006D45B462146179A059800F05DF805444B
:1027D0001498007818B15A46179990476D1CE00379
:1027E00024D55B462146179A059800F04DF805441C
:1027F0001CE00498002807DBDDE90301884203DDC3
:102800000098405C179901E0179930205A4690478C
:10281000049805F10105401C04900198401E0190A8
:1028200004D12E205A46179990476D1CBAF1000129
:10283000AAF1010ADDDC05E017F8010B5A461799E9
:1028400090476D1CB8F10001A8F10108F4DC5B466B
:102850002146179A0598ABE62D0000002B000000DA
:10286000200000002DE9F041044600251E461746D1
:10287000880404D405E039462020B0476D1C641E4E
:10288000F9D52846BDE8F0812DE9F0410446002540
:102890001E469046C80301D5302700E02027880453
:1028A00004D505E041463846B0476D1C641EF9D595
:1028B0002846BDE8F0810A68531C0B601070704711
:1028C00070B504460D46E1B20548FFF753FB00BF63
:1028D00080210348FFF7D5FA0028F9D0204670BDC3
:1028E0000038014010B5FEF7E3FC4FF4E13000F092
:1028F00015F841F61F410920FFF7A4F941F61F41E1
:1029000041F64B50FFF7FEF9FEF7B8F9FEF7ECFC85
:10291000FEF7C2FFFEF774FB10BD000010B586B0D5
:10292000044601218803FFF72BF801210420FFF75B
:1029300027F801210846FEF7F3FF4FF40070ADF8C9
:10294000040001208DF8060018208DF8070001A969
:102950003048FEF79CFA4FF48060ADF80400042084
:102960008DF8070001A92B48FEF791FA0294002088
:10297000ADF80C00ADF80E00ADF81000ADF8140085
:102980000C20ADF8120002A92348FFF787FA23486C
:10299000FEF73EF810202249886000208862086116
:1029A0001D48001D0860401448620420C8600020D3
:1029B0004860C8618861802048610020086217482B
:1029C000FEF7CCF8012280211348FFF751FA134893
:1029D0001430FEF71DF80020114988604FF4806024
:1029E000C86010484860202008620C481430FEF788
:1029F000B5F8012240210848FFF73AFA01210648BC
:102A0000FFF72AFA012105481430FDF7F4FF06B05C
:102A100010BD0000000801400038014044000240A1
:102A200064040020580000201FB500BFFFF75AFFC4
:102A3000FEF7F4FCFEF7D0FC022334A20021084686
:102A4000FEF7F6FD61E0FEF769FE32498868FDF7A2
:102A500080FD044622460B462FA101A8FFF7AEFADF
:102A6000022301AA00213220FEF7E2FD02232CA25C
:102A700019460020FEF7DCFD26494868FDF755FDA4
:102A80000446102003232246022100904120FEF735
:102A90008BFD264800F050F888B124490868FDF7FE
:102AA0000CFD1C4948600A4691685068FDF7AEFB72
:102AB00004464FF08241FDF79DFD00D200BF4FF468
:102AC00080711B48FEF73AFC90B9124948681949D1
:102AD000FDF74AFB0F4948600A4691685068FDF7C8
:102AE00095FB04464FF08241FDF784FD00D200BF04
:102AF0004FF400710E48FEF721FC30B905494868D3
:102B00000C49FDF783FB034948609CE754656D70F1
:102B10003A00000090040020252E336600000000DB
:102B200053657454656D703A000000000000002089
:102B3000001001400000A04001460020804A1070B3
:102B40008048C06DC0F580607F4A108010460088C4
:102B50007E4A128890420CDA7B48008800F580603B
:102B60007A4A1288801A7A4A12681044784A1060A9
:102B700009E075480088754A1288801A744A1268FC
:102B80001044734A106006E072480068724A128866
:102B90001044704A1060704800886D4A1268A2EBB9
:102BA00040006C4A12689042EEDCB7E0694A106857
:102BB000C21700EB92529212A0EB8222674B1A804E
:102BC00018460088401C664A108066481A461288DB
:102BD000805CA5287ED11A461288901DC21700EB92
:102BE00092529212A0EB82225E4B9A5C5A2A72D1C8
:102BF00000205D4A107000BF19E0584A1288521C2C
:102C0000564B1A801A461288B2F5806F04DB1A46BA
:102C10001288A2F580621A80524A504B1B88D25CFF
:102C2000514B1B781A44504B1A70421C10B20428A6
:102C3000E3DB4A480088401C484A10801046008860
:102C4000B0F5806F04DB10460088A0F5806010802E
:102C50004448424A1288805C434A127890423DD1EF
:102C6000424801600420424A10800020414A1080FE
:102C700020E03B480088B0F5806F05DB38480088CD
:102C8000A0F58060364A10803648354A1288805C4C
:102C9000364A1268107032480088401C304A108052
:102CA00032480068401C314A106032480088401C9D
:102CB000304A10802F4800882D4A12889042D8DB75
:102CC00024480068244A12881044224A10600120D7
:102CD0001B4A01E018E00CE010701FE01D4800687E
:102CE000401C1C4A106024480068401C224A1060A6
:102CF00014E018480068401C164A10601E4800681E
:102D0000401C1D4A106009E012480068401C114A2E
:102D1000106019480068401C174A10600C48006891
:102D20000D4A1288801A0B4A12689042BFF63EAFD5
:102D300005480088054A1080014800787047000067
:102D40002D0000200000024014000020160000208A
:102D50000C000020100000200800002018000020B7
:102D60001A000020580000202C0000202400002021
:102D70001C0000201E0000202800002070B5044622
:102D80000D460F48FDF744FE10200E4988600020D4
:102D9000886208610C480860401448620846C560B3
:102DA00044600020C861886180204861002008627A
:102DB0000348FDF7D3FE01210148FDF71CFE70BD5D
:102DC00044000240640400200438014070B5054608
:102DD000A5203D49087000203C4908703C49087016
:102DE00001203C49087000203B49088023E03A4814
:102DF000008855F820403449364A12788C54C4F380
:102E00000721314A33480078401C1154C4F307416C
:102E100030480078801C1154210E2E480078C01CC8
:102E200011542C480078001D2A4908702A4800884F
:102E3000401C29490880284800880128D7DB002049
:102E40002549088024E0281D2349098850F821409D
:102E50001D49204A12788C54C4F307211A4A1D4890
:102E60000078401C1154C4F307411A480078801CB4
:102E70001154210E17480078C01C115415480078D1
:102E8000001D1449087014480088401C124908802D
:102E9000114800880128D6DB012008E00A49095CB6
:102EA0000A4A12781144094A1170411C88B2082854
:102EB000F4DD06480078044948725A2088720B21D4
:102EC0000148FFF75BFF70BD580400202C00002074
:102ED00030000020310000202E0000200000000003
:102EE00000000000002F0000000007000700001491
:102EF0007F147F1400242A7F2A120062640813239F
:102F000000364955225000000503000000001C2235
:102F10004100000041221C000014083E0814000873
:102F2000083E0808000000A0600000080808080823
:102F3000000060600000002010080402003E5149BB
:102F4000453E0000427F4000004261514946002159
:102F500041454B31001814127F1000274545453973
:102F6000003C4A49493000017109050300364949CE
:102F7000493600064949291E000036360000000087
:102F800056360000000814224100001414141414D2
:102F9000000041221408000201510906003249597B
:102FA000513E007C1211127C007F49494936003E97
:102FB00041414122007F4141221C007F4949494152
:102FC000007F09090901003E4149497A007F08084C
:102FD000087F0000417F4100002040413F01007F09
:102FE00008142241007F40404040007F020C027FD5
:102FF000007F0408107F003E4141413E007F0909E7
:103000000906003E4151215E007F0919294600460C
:10301000494949310001017F0101003F4040403FE3
:10302000001F2040201F003F4038403F006314082D
:103030001463000708700807006151494543000008
:103040007F41410000552A552A55000041417F002B
:103050000004020102040040404040400000010220
:103060000400002054545478007F48444438003809
:103070004444442000384444487F00385454541891
:1030800000087E0901020018A4A4A47C007F0804A3
:1030900004780000447D4000004080847D00007F73
:1030A000102844000000417F4000007C0418047890
:1030B000007C0804047800384444443800FC24248C
:1030C00024180018242418FC007C08040408004874
:1030D0005454542000043F444020003C4040207C95
:1030E000001C2040201C003C4030403C0044281084
:1030F0002844001CA0A0A07C004464544C44141438
:10310000141414140000000000000000000000006F
:1031100000000000000000F8000000000000003384
:103120003000000000100C06100C0600000000002B
:103130000000000040C07840C0784000043F040414
:103140003F040400007088FC08300000001820FFD5
:10315000211E0000F008F000E018000000211C0310
:103160001E211E0000F00888700000001E2123248C
:103170001927211010160E000000000000000000AA
:1031800000000000000000E018040200000000073A
:103190001820400000020418E00000000040201841
:1031A00007000000404080F0804040000202010F14
:1031B00001020200000000F0000000000101011FF8
:1031C00001010100000000000000000080B070005C
:1031D00000000000000000000000000000010101EC
:1031E000010101010000000000000000003030007B
:1031F0000000000000000000806018040060180655
:103200000100000000E010080810E000000F10208E
:1032100020100F00001010F8000000000020203FD8
:103220002020000000700808088870000030282462
:103230002221300000300888884830000018202003
:1032400020110E000000C02010F800000007042428
:10325000243F240000F8088888080800001921206D
:1032600020110E0000E0108888180000000F1120C7
:1032700020110E0000380808C83808000000003F80
:10328000000000000070880808887000001C2221DF
:1032900021221C0000E010080810E000000031228C
:1032A00022110F00000000C0C0000000000000302C
:1032B000300000000000008000000000000080607E
:1032C00000000000000080402010080000010204FF
:1032D00008102000404040404040400004040404E6
:1032E00004040400000810204080000000201008A2
:1032F00004020100007048080808F00000000030D7
:1033000036010000C030C828E810E0000718272464
:1033100023140B000000C038E0000000203C230212
:103320000227382008F8888888700000203F202075
:1033300020110E00C03008080808380007182020A7
:103340002010080008F808080810E000203F20209E
:1033500020100F0008F88888E8081000203F20207F
:103360002320180008F88888E8081000203F200073
:1033700003000000C03008080838000007182020AB
:10338000221E020008F808000008F808203F21016A
:1033900001213F20000808F8080800000020203F15
:1033A0002020000000000808F8080800C080808085
:1033B0007F00000008F888C028180800203F20017E
:1033C0002638200008F8080000000000203F2020D8
:1033D0002020300008F8F800F8F80800203F003FEF
:1033E000003F200008F830C00008F808203F200007
:1033F00007183F00E01008080810E0000F10202018
:1034000020100F0008F808080808F000203F2101EC
:1034100001010000E01008080810E0000F18242443
:1034200038504F0008F8888888887000203F2000B6
:10343000030C30200070880808083800003820216C
:1034400021221C00180808F8080818000000203F76
:103450002000000008F808000008F808001F2020DD
:1034600020201F000878880000C8380800000738AE
:103470000E010000F80800F80008F800033C0700FF
:10348000073C0300081868808068180820302C0367
:10349000032C30200838C800C83808000000203F3E
:1034A0002000000010080808C8380800203826212D
:1034B00020201800000000FE020202000000007F31
:1034C00040404000000C30C000000000000000013F
:1034D0000638C00000020202FE000000004040402A
:1034E0007F0000000000040202020400000000004F
:1034F00000000000000000000000000080808080CC
:1035000080808080000202040000000000000000B3
:10351000000000000000808080800000001924224C
:1035200022223F2008F8008080000000003F112088
:1035300020110E000000008080800000000E11208D
:1035400020201100000000808088F800000E11206B
:1035500020103F200000808080800000001F222279
:1035600022221300008080F0888888180020203FE5
:10357000202000000000808080808000006B9494F8
:103580009493600008F8008080800000203F2100B4
:1035900000203F2000809898000000000020203F7D
:1035A00020200000000000809898000000C080806B
:1035B000807F000008F8000080808000203F240207
:1035C0002D302000000808F8000000000020203FF7
:1035D000202000008080808080808000203F2000AC
:1035E0003F20003F8080008080800000203F21003D
:1035F00000203F200000808080800000001F2020ED
:1036000020201F00808000808000000080FFA1201B
:1036100020110E000000008080808000000E11202C
:1036200020A0FF80808080008080800020203F21BB
:10363000200001000000808080808000003324246E
:1036400024241900008080E0808000000000001F1A
:10365000202000008080000000808000001F2020CB
:1036600020103F20808080000080808000010E308C
:103670000806010080800080008080800F300C03ED
:103680000C300F0000808000808080000020312EF0
:103690000E312000808080000080808080818E70CC
:1036A0001806010000808080808080000021302C7E
:1036B0002221300000000000807C02020000000097
:1036C000003F404000000000FF000000000000003C
:1036D000FF0000000002027C800000000040403F2C
:1036E00000000000000601010202040400000000C6
:1036F000000000000003050911FF118905C300E067
:1037000000F000F8000000000000004428FF11AAAB
:103710004400000000000000000000000000000065
:103720000000000000000000000000000000000099
:103730000000000000000000000000000000000089
:1037400000000000000000000000000000008301F5
:103750003844829292740183000000000000007CD3
:1037600044C7017D7D7D7D017D7D7D7D017D7D7DEC
:103770007D01FF00000000000001000100010001C8
:103780000001000100000000000000000001010035
:103790000000000000000000000000000000000029
:1037A0000000000000000000000000000000000019
:1037B0000000000000000000000000000000000009
:1037C00000000000000000000000000000000101F7
:1037D00000000000000001010000000000000000E7
:1037E00000010101010101010101010101010101CA
:1037F0000101010000000000000000000040404006
:10380000404000006D6D6D6D6D0000606060606037
:103810000000404040404000000000000000000068
:103820000000000000000000000000000000000098
:103830000000000000000000000000000000000088
:103840000000000000000000000000000000000078
:103850000000000000000000000000000000000068
:103860000000000000000000000000000000000058
:1038700000000000000000000000000000DBDBDBB7
:10388000DBDB0000DBDBDBDBDB0000DBDBDBDBDBF4
:103890000000DBDBDBDBDB0000DADADADADA00009F
:1038A000D8D8D8D8D80000C0C0C0C0C00000C0C0A0
:1038B000C0C0C00000C0C0C0C0C00000C0C0C0C008
:1038C000C0000080808080800000000000000000B8
:1038D00000000000000000000000000000000000E8
:1038E00000000000000000000000000000000000D8
:1038F00000000000000000000000000000060606B6
:10390000060600000606060606000006060606066F
:10391000000006060606060000060606E66620000B
:10392000060686060600000606060686000006064F
:10393000060606000086868686868080868606863F
:1039400086C0C08686860606D03076060606060045
:103950000006060606060000060606060600000625
:103960000606060600000606060606000000000021
:103970000000000000000000000000000000000047
:103980000000000000000000000000000000000037
:103990000000000000000000000000000000601CAB
:1039A00000FE00010200C41820029E63B20E00FF58
:1039B0008181FF00008040300F00000000FF0023E5
:1039C000EAAABFAAEA033F00FF00000000000000CF
:1039D00000000000000000000000000000000000E7
:1039E00000000000000000000000000000000000D7
:1039F00000000000000000808080000000000080C7
:103A000080800000000000000000000000000000B6
:103A10000000000000000000000000000E0C080084
:103A2000000101010101000000010000000100810E
:103A30008080818081808080800101010100000000
:103A40000100000001000101090C0E00000000004F
:103A5000000000000000000000000000C0C0C0C066
:103A6000C0C0C0C0C0C0C0C0C0C0C0C0C0C0C0C056
:103A7000C0C0C000001E21404050215E001E2140F9
:103A80004050215E00000000000000000000000027
:103A90000000000000000000000000000000000026
:103AA000000000000000000000000000000000FF17
:103AB000FFC1C1FFFFC1C1FFFF0000000000000007
:103AC00000000000000000000000000000000000F6
:103AD000000000000000000000000000FFFF80FC6C
:103AE000F3EFF3FC80FF80EEEEEEF5FBFF9CBEB63D
:103AF000B688FF00143B0008000000204C000000C6
:103B0000E41F0008603B00084C0000208C08000007
:103B1000F41F000800000000000000000700000083
:103B20000000000000000000000000000000000095
:103B30000000000000000000000000000000000085
:103B40000000000000000000000001020304010268
:103B5000030406070809020406080000000000002C
:0400000508000131BD
:00000001FF
